:200000000C9488000C94B2000C94B2000C94B2000C94B2000C94B2000C94B2000C94B2007A
:200020000C94B2000C94B2000C94B2000C94B2000C94B2000C94B2000C94B2000C94B20030
:200040000C94B2000C94B2000C94A10C0C94B2000C94150D0C94EB0C0C94B2000C94B20060
:200060000C94B2000C94B2000C94870B0C94B2000C94B2000C94B2000C94B2000C94B20010
:200080000C94B2000C94B2000C94B2001F1C1F1E1F1E1F1F1E1F1E00002100240027002A86
:2000A0000000002200250028002B0002020202020202020404040404040404030303030367
:2000C0000303030101010101010101010204081020408001020408102040800102040810F2
:2000E00020408001020408102040800000000203000A0B00000000050409080000000000ED
:200100000000000000000000000000004B0D440F11241FBECFEFD0E4DEBFCDBF22E0A4E7FA
:20012000B1E001C01D92A33CB207E1F711E0A0E0B1E0E8EFF3E200E00BBF02C007900D92FE
:20014000A437B107D9F710E0C7E8D0E004C02197FE010E94D00FC638D107C9F70E94840D28
:200160000C94EF110C94000090E0FC01E551FF4F2491FC01E553FF4F349185559F4FFC018C
:200180008491882349F12223C1F022502A30A8F4E22FF0E0E253FF4F0C94D00F0501090114
:2001A000D800ED00DD00DD00F100F700FB000101909180009F7790938000E82FF0E0EE0F9D
:2001C000FF1FEF55FF4FA591B4918FB7F894EC9130953E233C938FBF0895909180009F7D08
:2001E000EACF9091B0009F779093B000E6CF9091B0009F7DF9CF909190009F7790939000A8
:20020000DCCF909190009F7DF9CF94B59F7794BDD4CF94B59F7DFBCF0000000083EC90E03D
:200220000197F1F7089585ED8093BC008091BC0084FDFCCF1092160208952091F201260F17
:200240003327331F21323105ECF420911602FC0190E080E0243069F082E00895A091F20123
:200260002191AC014E525E4FA40FB52FB11D2C930196861798F38091F201680F6093F2018E
:2002800080E0089581E0089508958FEF9FEF08958FEF9FEF08958091D10190E091958195E5
:2002A00091090895CF93DF93CB01EA01642F0E941D01CE01DF91CF910895CF93DF931F9268
:2002C000CDB7DEB7698361E0CE0101960E941D0181E090E00F90DF91CF910895CF93DF9301
:2002E00090E0FC01E553FF4F249185559F4FFC0184918823D1F090E0880F991FFC01E95615
:20030000FF4FA591B491FC01EF55FF4FC591D49161110EC09FB7F8948C91E22FE0958E2354
:200320008C932881E223E8839FBFDF91CF9108958FB7F894EC91E22BEC938FBFF6CF3FB7D6
:20034000F8948091CD019091CE01A091CF01B091D00126B5A89B05C02F3F19F00196A11D80
:20036000B11D3FBFBA2FA92F982F8827BC01CD01620F711D811D911D43E0660F771F881FCF
:20038000991F4A95D1F708958F929F92AF92BF92CF92DF92EF92FF924B015C010E949F01AE
:2003A0006B017C010E949F016C197D098E099F09683E734081059105A8F321E0821A910882
:2003C000A108B10888EEC80E83E0D81EE11CF11C81149104A104B10429F7FF90EF90DF90EB
:2003E000CF90BF90AF909F908F900895AF92BF92CF92DF92EF92FF920F931F93CF93DF9387
:200400006C017B018B01040F151FEB015E01AE18BF08C017D10759F06991D601ED91FC9174
:200420000190F081E02DC6010995892B79F7C501DF91CF911F910F91FF90EF90DF90CF9062
:20044000BF90AF90089590E080E00895FC01538D448D252F30E0842F90E0821B930B541729
:2004600010F0CF96089501970895FC01918D828D981761F0A28DAE0FBF2FB11D5D968C9163
:20048000928D9F5F9F73928F90E008958FEF9FEF0895FC01918D828D981731F0828DE80F56
:2004A000F11D858D90E008958FEF9FEF0895FC01918D228D892F90E0805C9F4F821B910973
:2004C0008F73992708958CE192E00E94570221E0892B09F420E0822F0895FC01A48DA80FFE
:2004E000B92FB11DA35ABF4F2C91848D90E001968F739927848FA689B7892C93A089B18900
:200500008C91837080648C93938D848D981306C00288F389E02D80818F7D80830895EF92E5
:20052000FF920F931F93CF93DF93EC0181E0888F9B8D8C8D98131AC0E889F989808185FF5F
:2005400015C09FB7F894EE89FF896083E889F98980818370806480839FBF81E090E0DF9195
:20056000CF911F910F91FF90EF900895F62E0B8D10E00F5F1F4F0F731127E02E8C8D8E1118
:200580000CC00FB607FCFACFE889F989808185FFF5CFCE010E946D02F1CFEB8DEC0FFD2F83
:2005A000F11DE35AFF4FF0829FB7F8940B8FEA89FB8980818062CFCFCF93DF93EC01888D66
:2005C0008823B9F0AA89BB89E889F9898C9185FD03C0808186FD0DC00FB607FCF7CF8C91FF
:2005E00085FFF2CF808185FFEDCFCE010E946D02E9CFDF91CF91089580E090E0892B29F0D3
:200600000E94630281110E94000080E090E0892B49F080E090E0892B29F00E940000811111
:200620000C940000089542E050E068E171E08CE192E00C94F601CF93DF93FC0144815581AF
:20064000608171818CE192E00E94F601EC010E9413038C0F9D1FDF91CF9108950F931F9392
:20066000CF93DF93EC0188819981009759F02A813B812617370730F081E0DF91CF911F91D3
:200680000F9108958B016F5F7F4F0E94FE10009759F0998388831B830A832C813D81232B5A
:2006A00059F7FC011082E8CF80E0E7CFEF92FF920F931F93CF93DF936115710541F480E0D3
:2006C000DF91CF911F910F91FF90EF90089541155105B1F07B01EC010C811D81040F151F27
:2006E000B8010E942E03882351F3288139818C819D81B701820F931F0E94E8111D830C832C
:2007000081E0DECF41E050E065E371E00C945603FB0144815581608171810C945603CF9323
:20072000DF93EC0188819981009711F00E947510198218821D821C821B821A82DF91CF91FD
:200740000895EF92FF920F931F93CF93DF938C017B01EB0109900020E9F72197C61BD70BB9
:20076000BE010E942E03811109C0C801DF91CF911F910F91FF90EF900C948F03F801D58312
:20078000C483B70180819181DF91CF911F910F91FF90EF900C94E811EF92FF920F931F931A
:2007A000CF93DF938C017B01EB0109900020E9F72197C61BD70BBE010E942E03811109C06F
:2007C000C801DF91CF911F910F91FF90EF900C948F03F801D583C483B70180819181DF911D
:2007E000CF911F910F91FF90EF900C94E8110F931F93CF93DF93CDB7DEB7A1970FB6F894D8
:20080000DEBF0FBECDBF8C01CB01BA01F80111821082138212821582148220E1AE014F5FFC
:200820005F4F0E94480FBE016F5F7F4FC8010E94CC03A1960FB6F894DEBF0FBECDBFDF918E
:20084000CF911F910F9108950F931F93CF93DF93CDB7DEB761970FB6F894DEBF0FBECDBFCB
:200860008C01CB01F80111821082138212821582148240E1BE016F5F7F4F0E946A0FBE0155
:200880006F5F7F4FC8010E94CC0361960FB6F894DEBF0FBECDBFDF91CF911F910F91089587
:2008A000FC0180819181009711F00C94751008952F923F924F925F926F927F928F929F9206
:2008C000AF92BF92CF92DF92EF92FF920F931F93CF93DF93CDB7DEB7C251D4400FB6F894E9
:2008E000DEBF0FBECDBFFE0131968E010F5F1B4F1F0111921192E017F107D9F781ED80932F
:200900007C0062E370E080E090E00E94C40110927B0080917A00806280937A0080917A00ED
:20092000806480937A0080917A00846080937A0080917A008D7F80937A0080917A008E7F8E
:2009400080937A0080917A00806180937A0080917A0084FFFCCF80917A00806180937A003F
:20096000809178008093C701809179008093C60180ED80937C0010927B0080917A00806229
:2009800080937A0080917A00806480937A0080917A00846080937A0080917A008D7F809328
:2009A0007A0080917A008E7F80937A008091C60120E8829FC00111242091C70130E035954E
:2009C0002795822B932B8F3F910511F00CF03DC193959093C5018093C4018091C4019091B1
:2009E000C501909389018093880181E085B980917A00806180937A0080917A0084FFFCCF77
:200A00008FE984B90E940C018EE984B980917A00806180937A0080917A0084FFFCCF8FE974
:200A200084B9000000000000000000008EE984B980917A00806180937A002FEF3FEFCF5E53
:200A4000DB4F19821882C151D4406FE97EE980917A0084FFFCCF0000000000000000000079
:200A6000000064B90000000000000000000074B980917A00806180937A0040917800409317
:200A8000C701809179008093C60150E8859FC001112450E055954795842B952B8F3F91050F
:200AA00011F00CF0D4C093959093C5018093C4018091C4019091C501E0918601F0918701FE
:200AC000E817F90708F0C5C09093870180938601CF5EDB4F88819981C151D4400196CF5EF1
:200AE000DB4F99838883C151D440A8952150310909F0ADCF2FB7F8946091C9017091CA0129
:200B00008091CB019091CC012FBF8090820190908301A0908401B0908501681979098A09D4
:200B20009B0928EE33E040E050E00E94AE0F69017A01A8EEB3E00E94940F860E971EA81ED7
:200B4000B91E8092820190928301A0928401B092850180917E0190917F01A0918001B091E0
:200B600081018C0D9D1DAE1DBF1D80937E0190937F01A0938001B09381016C017D01E0E898
:200B8000CE1AE3E4DE0AEDE6EE0AE8E3FE0AECE38E2E912CA12CB12CC701B601A501940174
:200BA0000E94AE0FC35FDB4F688379838A839B83CD50D440CA01B901A50194010E94AE0F28
:200BC0004B015C01C701B60120E13EE040E050E00E94AE0FCA01B90128E130E040E050E031
:200BE0000E94AE0F2B013C01C701B60120E831E541E050E00E94AE0F60E0E3E9FEEFA62F12
:200C0000A37081E090E011F090E080E071E0760FAC0143595E4F2417350748F54CE850E03B
:200C2000FA0171E07C3051F18491A11103C0723009F48F5F90E0B1E0B70F31962817390756
:200C4000E8F0281B390B7B2FEDCF9A95C2CE9A952BCFEE0FFF1FE20DF31D80819181019623
:200C60009183808310928701109286013ECFAF01481B590B240F351F672FC1CF862F90E0B4
:200C80002F5F30E061E0671740F4FA01B4912B0F311D6F5F4F5F5F4FF6CF733020F0A111A7
:200CA00002C02F5F3F4FFC013396F695E795F695E7956DE671E0869FA001879F500D969F60
:200CC000500D112441505109E40FF51F2E0F3F1FA8E1B0E00E949F0F9B01AC01240D351DC0
:200CE000461D571DACE3B0E00E94940F9B01AC01280D391D4A1D5B1D0E94940FC35FDB4F75
:200D0000C880D980EA80FB80CD50D440F0E8CF1AFCEBDF0AF2E9EF0AF7ECFF0A4B015C0122
:200D20008C0C9D1CAE1CBF1CC95FDB4F19821882C750D440C75FDB4F19821882C950D44059
:200D4000C55FDB4F19821882CB50D4406BE171E0CE01895F9B4F0E94A103B501A401C80139
:200D60000E94F703B801CE01895F9B4F0E948803C8010E945004CE01895F9B4F0E948203C9
:200D8000C090C201D090C301F6013296EE0FFF1FE20DF31D60817181C8010E942404B80124
:200DA000CE01895F9B4F0E948803C8010E945004CE01895F9B4F0E948203F6013396EE0F21
:200DC000FF1FE20DF31DE080F180B701C8010E942404B801CE01895F9B4F0E948803C8018A
:200DE0000E9450048091A2019091A301A091A401B091A5018E0D9F1DA11DB11D8093A2012E
:200E00009093A301A093A401B093A501CE01895F9B4F0E948203C60104967C01EE0CFF1C8F
:200E2000F101EE0DFF1D712C612C260126E0420E511C8415950530F421913191620E731EC9
:200E40000196F3CFB301C8010E942404B801CE01895F9B4F0E948803C8010E94500480919B
:200E6000A6019091A701A091A801B091A901860D971DA11DB11D8093A6019093A701A093B2
:200E8000A801B093A901CE01895F9B4F0E948203F7013496E20DF31D712C612CA601475FBC
:200EA0005F4FC35FDB4F59834883CD50D4404416550640F481919191680E791E5FEF451A89
:200EC000550AECCFB301C8010E942404B801CE01895F9B4F0E948803C8010E94500480915A
:200EE000AA019091AB01A091AC01B091AD01860D971DA11DB11D8093AA019093AB01A0931A
:200F0000AC01B093AD01CE01895F9B4F0E948203F7013A96E20DF31D712C612C260182E1F0
:200F2000480E511CC35FDB4F48815981CD50D4404415550568F481919191680E791E4F5FD0
:200F40005F4FC35FDB4F59834883CD50D440E6CFB301C8010E942404B801CE01895F9B4F69
:200F60000E948803C8010E9450048091AE019091AF01A091B001B091B101860D971DA11D1A
:200F8000B11D8093AE019093AF01A093B001B093B101CE01895F9B4F0E948203F7017C9643
:200FA000E20DF31D10E000E036015DE2650E711C4614570440F481919191080F191F8FEF02
:200FC000481A580AF1CFB801CE018F5F9B4F0E942404BE016F5F7B4FCE01895F9B4F0E94C9
:200FE0008803CE018F5F9B4F0E9450048091B2019091B301A091B401B091B501800F911F14
:20100000A11DB11D8093B2019093B301A093B401B093B501CE01895F9B4F0E948203F70106
:20102000EE5AFF4F41E050E04C0F5D1FE40FF51F10E000E026015EE7450E511C64147504FE
:2010400040F481919191080F191F8FEF681A780AF1CFB801CE018F5F9B4F0E942404BE01AE
:201060006F5F7B4FCE01895F9B4F0E948803CE018F5F9B4F0E9450048091B6019091B701CC
:20108000A091B801B091B901800F911FA11DB11D8093B6019093B701A093B801B093B90112
:2010A000CE01895F9B4F0E948203F701EC50FF4F41E050E04C0F5D1FE40FF51F10E000E0E7
:2010C0005FEEC50ED11C4C145D0440F481919191080F191F8FEF481A580AF5CFB801CE01FD
:2010E0008F5F9B4F0E942404BE016F5F7B4FCE01895F9B4F0E948803CE018F5F9B4F0E94E0
:2011000050048091BA019091BB01A091BC01B091BD01800F911FA11DB11D8093BA01909329
:20112000BB01A093BC01B093BD01CE01895F9B4F0E9482039AE2E91A9EEFF90AE1E0F0E09A
:20114000EC0FFD1FEE0DFF1D10E000E0C11422E0D20644F481919191080F191F4FEFC41A0B
:20116000D40AF4CFB801CE018F5F9B4F0E942404BE016F5F7B4FCE01895F9B4F0E9488037F
:20118000CE018F5F9B4F0E9450048091BE019091BF01A091C001B091C101800F911FA11D0F
:2011A000B11D8093BE019093BF01A093C001B093C101CE01895F9B4F0E9482036091880171
:2011C00070918901CE018F5F9B4F0E942404BE016F5F7B4FCE01895F9B4F0E948803CE011F
:2011E0008F5F9B4F0E945004CE01895F9B4F0E941B0362E271E0CE01895F9B4F0E94CC0319
:2012000060917C0170917D01CE018F5F9B4F0E942404BE016F5F7B4FCE01895F9B4F0E94D6
:201220008803CE018F5F9B4F0E945004CE01895F9B4F0E948203B501A401CE018F5F9B4FBC
:201240000E94F703BE016F5F7B4FCE01895F9B4F0E948803CE018F5F9B4F0E945004CE0161
:20126000895F9B4F0E948203CF5EDB4F68817981C151D440CE018F5F9B4F0E942404BE01E5
:201280006F5F7B4FCE01895F9B4F0E948803CE018F5F9B4F0E945004CE01895F9B4F0E9408
:2012A00082036091C2017091C301CE018F5F9B4F0E942404BE016F5F7B4FCE01895F9B4FC7
:2012C0000E948803CE018F5F9B4F0E945004E090C201F090C3018701000F111F81E090E035
:2012E0008C0F9D1F080F191F8091C2019091C301C296E816F906F8F4CE01895F9B4F0E940B
:201300008203F801619171918F01CE018F5F9B4F0E942404BE016F5F7B4FCE01895F9B4F62
:201320000E948803CE018F5F9B4F0E945004FFEFEF1AFF0AD9CFCE01895F9B4F0E941B03DA
:2013400069E271E0CE01895F9B4F0E94CC0360917A0170917B01CE018F5F9B4F0E94240485
:20136000BE016F5F7B4FCE01895F9B4F0E948803CE018F5F9B4F0E94500482EAE82E81E0C8
:20138000F82E8701CE01895F9B4F0E948203F80141915191619171918F01CE018F5F9B4FFF
:2013A0000E94F703BE016F5F7B4FCE01895F9B4F0E948803CE018F5F9B4F0E945004F1E0FE
:2013C000023C1F07F9F6CE01895F9B4F0E941B0380917C0190917D01019690937D018093E1
:2013E0007C0180917A0190917B01019690937B0180937A018038964109F06AC160E371E03C
:20140000CE01895F9B4F0E94CC0340919601509197016091980170919901CE018F5F9B4F0D
:201420000E94F703BE016F5F7B4FCE01895F9B4F0E948803CE018F5F9B4F0E945004CE017F
:20144000895F9B4F0E94820340919A0150919B0160919C0170919D01CE018F5F9B4F0E9434
:20146000F703BE016F5F7B4FCE01895F9B4F0E948803CE018F5F9B4F0E945004CE01895FF9
:201480009B4F0E94820340919E0150919F016091A0017091A101CE018F5F9B4F0E94F703D2
:2014A000BE016F5F7B4FCE01895F9B4F0E948803CE018F5F9B4F0E945004CE01895F9B4FC9
:2014C0000E94820340918A0150918B0160918C0170918D01CE018F5F9B4F0E94F703BE010D
:2014E0006F5F7B4FCE01895F9B4F0E948803CE018F5F9B4F0E945004CE01895F9B4F0E94A6
:20150000820340918E0150918F016091900170919101CE018F5F9B4F0E94F703BE016F5F90
:201520007B4FCE01895F9B4F0E948803CE018F5F9B4F0E945004CE01895F9B4F0E948203AE
:2015400040919201509193016091940170919501CE018F5F9B4F0E94F703BE016F5F7B4FFB
:20156000CE01895F9B4F0E948803CE018F5F9B4F0E945004CE01895F9B4F0E941B0380918E
:20158000960190919701A0919801B091990180938A0190938B01A0938C01B0938D01809167
:2015A0009A0190919B01A0919C01B0919D0180938E0190938F01A0939001B0939101809127
:2015C0009E0190919F01A091A001B091A1018093920190939301A0939401B09395018091E7
:2015E000A2019091A301A091A401B091A5018093960190939701A0939801B09399018091A7
:20160000A6019091A701A091A801B091A9014091AA015091AB016091AC017091AD01840FAC
:20162000951FA61FB71F4091AE015091AF016091B0017091B101840F951FA61FB71F809300
:201640009A0190939B01A0939C01B0939D018091B2019091B301A091B401B091B501409138
:20166000B6015091B7016091B8017091B901840F951FA61FB71F4091BA015091BB016091B9
:20168000BC017091BD01840F951FA61FB71F4091BE015091BF016091C0017091C101840FB3
:2016A000951FA61FB71F80939E0190939F01A093A001B093A10110927B0110927A01F7017A
:2016C00011921192119211927F010E171F07B9F7CE01895F9B4F0E945004CE5EDB4F0FB651
:2016E000F894DEBF0FBECDBFDF91CF911F910F91FF90EF90DF90CF90BF90AF909F908F9090
:201700007F906F905F904F903F902F9008951F920F920FB60F9211240BB60F922F933F93DF
:201720004F935F936F937F938F939F93AF93BF93EF93FF938091B900887F803609F44DC034
:2017400008F040C0883209F4A7C028F5803109F49BC0C8F4882309F4F1C0883009F494C02F
:20176000FF91EF91BF91AF919F918F917F916F915F914F913F912F910F900BBE0F900FBE35
:201780000F901F901895883109F486C0803241F78093150214C0803409F497C040F480337B
:2017A000B9F38833E9F68093150285ECA8C0803509F481C0883509F490C0883489F60E9406
:2017C0001301CECF883909F486C038F5883729F050F4883611F0803719F683E080931602F8
:2017E0001092140255C0883809F475C0803919F0803809F0B5CF80911402803208F06BC037
:20180000E091140281E08E0F809314028091BB00F0E0EC50FE4F80833BC0803B39F0D0F44F
:20182000803A09F471C0883A09F09ACF84E0809316021092F3011092F201F0E0E0E00995B4
:201840008091F20181110FC081E08093F2011092D20109C0803C09F4A8CF883C09F4A5CF19
:20186000883B09F07DCFE091F30181E08E0F8093F301F0E0EE52FE4F80818093BB009091A9
:20188000F3018091F20125C080911B028093BB0085EC8093BC0064CF90911A028091190293
:2018A000981728F5E0911A0281E08E0F80931A02F0E08081EBCFE0911A0281E08E0F809379
:2018C0001A028091BB00F0E0808390911A02809119029817E8F285E8DCCFE0911A0281E055
:2018E0008E0F80931A028091BB00F0E0808380911802811164CF81E08093170284EA80937F
:20190000BC00109216022CCF85EC8093BC001092160280911402803230F4E0911402F0E008
:20192000EC50FE4F10826091140270E084EF91E0F0E0E0E009951092140212CF10921502D1
:201940003ECF1F920F920FB60F9211242F933F938F939F93AF93BF938091C9019091CA014A
:20196000A091CB01B091CC013091C80126E0230F2D3768F129E8230F0396A11DB11D2093C2
:20198000C8018093C9019093CA01A093CB01B093CC018091CD019091CE01A091CF01B09193
:2019A000D0010196A11DB11D8093CD019093CE01A093CF01B093D001BF91AF919F918F9169
:2019C0003F912F910F900FBE0F901F9018950296A11DB11DD4CF1F920F920FB60F9211245C
:2019E0000BB60F922F933F934F935F936F937F938F939F93AF93BF93EF93FF938CE192E02E
:201A00000E946D02FF91EF91BF91AF919F918F917F916F915F914F913F912F910F900BBEED
:201A20000F900FBE0F901F9018951F920F920FB60F9211240BB60F922F938F939F93EF9358
:201A4000FF93E0912C02F0912D028081E0913202F091330282FD1DC09081809135028F5FA6
:201A60008F7320913602821741F0E0913502F0E0E45EFD4F958F80933502FF91EF919F91FD
:201A80008F912F910F900BBE0F900FBE0F901F9018958081F2CFECE1F2E01382128288EE97
:201AA00093E0A0E0B0E084839583A683B7838AE091E09183808385EC90E09587848784ECB7
:201AC00090E09787868780EC90E0918B808B81EC90E0938B828B82EC90E0958B848B86ECE1
:201AE00090E0978B868B118E128E138E148EE9EBF2E011821082138212821582148267E356
:201B000071E0CF010C94A103CF93DF93CDB7DEB72C970FB6F894DEBF0FBECDBF789484B524
:201B2000836084BD85B5836085BD80916E00816080936E0092E090938100809181008160B8
:201B400080938100809180008160809380008091B10084608093B1008091B00081608093CD
:201B6000B000809191008360809391008091900081608093900086E880937A001092C10009
:201B8000E0912C02F0912D029083E0912802F091290281E08083E0912A02F0912B0280EA83
:201BA000808310923402E0913002F091310286E08083E0912E02F0912F0280818869808342
:201BC000E0912E02F0912F0280818F7D808388E199E20FB6F894A895809360000FBE9093CD
:201BE00060001A8219821C821B821E821D826AE171E0CE0101960E94A1030091BD0210919B
:201C0000BE020630110518F10D32110510F00DE210E0E091B902F091BA02E00FF11FF080A3
:201C200010826091B9027091BA026B5F7F4FCE0101966115710509F422C10E94CC0380915D
:201C4000B9029091BA02080F191FF801F08218861F821A8619861C861B8667E671E0CE0104
:201C600007960E94A1034D815E8169817A81CE0107960E945603811104C0CE0107960E9424
:201C80008F03CE0107960E941B03CE0107960E945004CE0101960E94500480ED80937C00CC
:201CA00010927B0080917A00806280937A0080917A00806480937A0080917A00846080938F
:201CC0007A0080917A008D7F80937A0080917A008E7F80937A0061E080E00E946E0160E04F
:201CE0008AE00E946E018BE00E94B40061E08BE00E946E0180E00E94B40081ED80937C0038
:201D000068EC70E080E090E00E94C40110927B0080917A00806280937A0080917A00806462
:201D200080937A0080917A00846080937A0080917A008D7F80937A0080917A008E7F80934B
:201D40007A0080917A00806180937A0080917A0084FFFCCF80917A00806180937A0080912D
:201D600078008093C701809179008093C60180ED80937C0010927B0080917A008062809313
:201D80007A0080917A00806480937A0080917A00846080937A0080917A008D7F80937A00AD
:201DA00080917A008E7F80937A008091C601F0E88F9FC00111242091C70130E0359527951B
:201DC000822B932B8F3F910511F00CF05BC093959093C5018093C4018091C4019091C50176
:201DE00002979093C3018093C201E2EAF1E082EC91E011921192119211928E179F07C9F77A
:201E00001092960110929701109298011092990110928A0110928B0110928C0110928D011E
:201E200010929A0110929B0110929C0110929D0110928E0110928F011092900110929101DE
:201E400010929E0110929F011092A0011092A101109292011092930110929401109295019E
:201E600045E050E06EE671E08CE192E00E94F6010E9413030E9458040E94FC02FBCF0E942E
:201E80008F03DDCE9A95A4CF89EB92E00C945004BB27FA01A62F6217710581059105330B8E
:201EA00030FB66F0AA27660F771F881F991FAA1FA21710F0A21B63953850A9F7A05DAA332D
:201EC00008F0A95DA19336F7B111B1931082CA010C94840FBB27FB015527AA27880F991F93
:201EE000AA1FA41710F0A41B83955051B9F7A05DAA3308F0A95DA193009779F7B111B1931D
:201F00001192CB010C94840FDC01FC01672F71917723E1F7329704C07C916D9370836291BB
:201F2000AE17BF07C8F308950E949F0FA59F900DB49F900DA49F800D911D11240895A29F0C
:201F4000B001B39FC001A39F700D811D1124911DB29F700D811D1124911D0895A1E21A2EC6
:201F6000AA1BBB1BFD010DC0AA1FBB1FEE1FFF1FA217B307E407F50720F0A21BB30BE40B59
:201F8000F50B661F771F881F991F1A9469F760957095809590959B01AC01BD01CF01089511
:201FA000EE0FFF1F0024001C0BBE0790F691E02D09940F931F93CF93DF938230910510F4C1
:201FC00082E090E0E091C102F091C20230E020E0B0E0A0E0309799F42115310509F44AC0CF
:201FE000281B390B24303105D8F58A819B816115710589F1FB0193838283FE0111C04081CE
:2020000051810281138148175907E0F04817590799F4109761F012960C93129713961C93BC
:202020003296CF01DF91CF911F910F9108950093C1021093C202F4CF2115310551F04217C5
:20204000530738F0A901DB019A01BD01DF01F801C1CFEF01F9CF9093C2028093C102CDCFA5
:20206000FE01E20FF31F819391932250310939832883D7CF2091BF023091C002232B41F4F5
:2020800020910201309103013093C0022093BF0220910001309101012115310541F42DB7D4
:2020A0003EB74091040150910501241B350BE091BF02F091C002E217F307A0F42E1B3F0B60
:2020C0002817390778F0AC014E5F5F4F2417350748F04E0F5F1F5093C0024093BF0281933A
:2020E00091939FCFF0E0E0E09CCFCF93DF930097E9F0FC01329713821282A091C102B091EB
:20210000C202ED0130E020E01097A1F420813181820F931F2091BF023091C00228173907B7
:2021200009F061C0F093C002E093BF02DF91CF910895EA01CE17DF07E8F54A815B819E01C6
:2021400041155105B1F7E901FB83EA8349915991C40FD51FEC17FD0761F4808191810296C4
:20216000840F951FE90199838883828193819B838A83F0E0E0E012968D919C911397009701
:20218000B9F52D913C911197CD010296820F931F2091BF023091C0022817390739F630974B
:2021A00051F51092C2021092C102B093C002A093BF02BCCFD383C28340815181840F951F15
:2021C000C817D90761F44E5F5F4F88819981480F591F518340838A819B819383828321158F
:2021E000310509F0B0CFF093C202E093C1029ECFFD01DC01C0CF13821282D7CF4F925F923C
:202200006F927F928F929F92AF92BF92CF92DF92EF92FF920F931F93CF93DF938C01009798
:2022200099F4CB01DF91CF911F910F91FF90EF90DF90CF90BF90AF909F908F907F906F905F
:202240005F904F900C94D90FFC01E60FF71F9C0122503109E217F30708F4AEC0D901CD9142
:20226000DC911197C617D70720F1C530D10578F0CE0104978617970750F0C61BD70B2297E9
:20228000C193D1936D937C93CF010E947510C801DF91CF911F910F91FF90EF90DF90CF90BB
:2022A000BF90AF909F908F907F906F905F904F9008955B01AC1ABD0A4C018C0E9D1EA0910D
:2022C000C102B091C202512C412CF12CE12C109731F58091BF029091C0028815990509F06C
:2022E0005CC04616570608F058C08091000190910101009741F48DB79EB7409104015091A8
:202300000501841B950BE817F90708F055C0F093C002E093BF02F90171836083B8CF8D917D
:202320009C91119712966C90129713967C901397A815B90559F56C0142E0C40ED11CCA1427
:20234000DB0420F1AC014A195B09DA011296159780F06282738251834083D9016D937C9321
:20236000E114F10471F0D7011396FC93EE9312978ECF22968C0F9D1FF90191838083F30167
:20238000EFCFF093C202E093C10281CF4816590608F42C017D01D3019ACFCB010E94D90FBB
:2023A0007C01009749F0AE01B8010E94DF11C8010E94751087016BCF10E000E068CFFB0121
:2023C000DC0102C001900D9241505040D8F70895FB01DC0101900D920020E1F7089510E013
:2023E000C7E8D0E004C0FE010E94D00F2196C838D107C9F7F894FFCF0000C302800000004C
:2024000000008F02F6012602DC025702350249020D0A0024445053442C0024484B53442C47
:202420000024424553442C0024414453442C002449643A203138313639616264346132623E
:2024400033333161633737626661656336336563383632353533353964376563202400241B
:0C246000504F53442C00244943534400C7
:00000001FF
